:100000000C9461000C947E000C947E000C947E0095
:100010000C947E000C947E000C947E000C947E0068
:100020000C947E000C947E000C947E000C947E0058
:100030000C947E000C947E000C947E000C947E0048
:100040000C949A000C947E000C947E000C947E001C
:100050000C947E000C947E000C947E000C947E0028
:100060000C947E000C947E00000000002400270009
:100070002A0000000000250028002B0000000000DE
:1000800023002600290004040404040404040202DA
:100090000202020203030303030301020408102007
:1000A0004080010204081020010204081020000012
:1000B0000007000201000003040600000000000029
:1000C000000011241FBECFEFD8E0DEBFCDBF11E08E
:1000D000A0E0B1E0EAEFF3E002C005900D92A0309D
:1000E000B107D9F711E0A0E0B1E001C01D92A9303D
:1000F000B107E1F70E94F4010C94FB010C9400009D
:100100008DE061E00E949C0168EE73E080E090E089
:100110000E94E2008DE060E00E949C0168EE73E0C6
:1001200080E090E00E94E20008958DE061E00E948E
:10013000760108951F920F920FB60F9211242F93FC
:100140003F938F939F93AF93BF93809104019091BE
:100150000501A0910601B0910701309108010196B7
:10016000A11DB11D232F2D5F2D3720F02D57019696
:10017000A11DB11D209308018093040190930501F6
:10018000A0930601B09307018091000190910101B5
:10019000A0910201B09103010196A11DB11D8093B0
:1001A000000190930101A0930201B0930301BF915C
:1001B000AF919F918F913F912F910F900FBE0F9014
:1001C0001F9018959B01AC017FB7F89480910001B6
:1001D00090910101A0910201B091030166B5A89B25
:1001E00005C06F3F19F00196A11DB11D7FBFBA2F49
:1001F000A92F982F8827860F911DA11DB11D62E0A0
:10020000880F991FAA1FBB1F6A95D1F7BC012DC08B
:10021000FFB7F8948091000190910101A091020133
:10022000B0910301E6B5A89B05C0EF3F19F0019618
:10023000A11DB11DFFBFBA2FA92F982F88278E0FA0
:10024000911DA11DB11DE2E0880F991FAA1FBB1FC0
:10025000EA95D1F7861B970B885E9340C8F2215030
:1002600030404040504068517C4F211531054105D8
:10027000510571F60895789484B5826084BD84B583
:10028000816084BD85B5826085BD85B5816085BD91
:10029000EEE6F0E0808181608083E1E8F0E01082AA
:1002A000808182608083808181608083E0E8F0E0EB
:1002B000808181608083E1EBF0E0808184608083D5
:1002C000E0EBF0E0808181608083EAE7F0E080810C
:1002D000846080838081826080838081816080836C
:1002E0008081806880831092C1000895482F50E07B
:1002F000CA0186569F4FFC0124914A575F4FFA016D
:1003000084918823C1F0E82FF0E0EE0FFF1FE85939
:10031000FF4FA591B491662341F49FB7F8948C9157
:10032000209582238C939FBF08959FB7F8948C915A
:10033000822B8C939FBF0895482F50E0CA018255AD
:100340009F4FFC012491CA0186569F4FFC013491B6
:100350004A575F4FFA019491992309F444C022232C
:1003600051F1233071F0243028F42130A1F02230F3
:1003700011F514C02630B1F02730C1F02430D9F483
:1003800004C0809180008F7703C0809180008F7DB2
:100390008093800010C084B58F7702C084B58F7DB4
:1003A00084BD09C08091B0008F7703C08091B000F8
:1003B0008F7D8093B000E92FF0E0EE0FFF1FEE5825
:1003C000FF4FA591B491662341F49FB7F8948C91A7
:1003D000309583238C939FBF08959FB7F8948C9199
:1003E000832B8C939FBF08950E943B010E94950030
:1003F0000E948000FDCFF894FFCFFFFFFFFFFFFFBB
:10040000B90122E030E040E050E00E94C2042095B3
:1004100030954095509583E0220F331F441F551FA0
:100420008A95D1F760E074E284EF90E00E94C20404
:10043000CA01B9012FEF30E040E050E00E946E04A5
:10044000A40193010E94C204C90181509F4F181654
:1004500019061CF4822F815002C081E0821B851591
:1004600000F5E885F98581E090E00A8802C0880FF0
:10047000991F0A94E2F7808360E079E08DE390E0D1
:10048000A40193010E94C2042150304040405040DA
:10049000CA01B90122E030E040E050E00E94C2040D
:1004A00004C0E885F98510829501EC81FD813083D7
:1004B000EE81FF812083EA85FB85208141E050E0C9
:1004C000CA010E8402C0880F991F0A94E2F7282BF4
:1004D0002083EA85FB852081CA010F8402C0880F32
:1004E000991F0A94E2F7282B2083EA85FB858081F7
:1004F000088802C0440F551F0A94E2F7842B8083BA
:10050000DF91CF911F910F91FF90EF90DF90CF90EF
:10051000BF90AF909F908F907F906F905F90089565
:10052000DC011296ED91FC911397E058FF4F8191F9
:10053000919180589F4F20813181821B930B60E8FD
:1005400070E00E948D040895DC011296ED91FC91FB
:100550001397EE57FF4F2081318192918291E0589D
:10056000F0408217930719F42FEF3FEF05C0E20F19
:10057000F31F8081282F30E0C9010895CF93DF93C6
:10058000DC011296ED91FC911397EF01CE57DF4FEE
:1005900048815981E058FF4F80819181E058F040B7
:1005A0008417950719F42FEF3FEF0CC0E40FF51FE8
:1005B0002081CA01019660E870E00E948D04998351
:1005C000888330E0C901DF91CF910895DC01129654
:1005D000ED91FC911397EE57FF4F8081918192939B
:1005E00082930895FC01A085B18521898C9190E0CA
:1005F000022E02C0959587950A94E2F780FFF6CF08
:100600000484F585E02D6083089584E091E0909363
:10061000A1018093A0018CE191E09093A3018093CC
:10062000A20185EC90E09093A5018093A40184EC55
:1006300090E09093A7018093A60180EC90E09093C6
:10064000A9018093A80181EC90E09093AB01809385
:10065000AA0186EC90E09093AD018093AC0184E018
:100660008093AE0183E08093AF0187E08093B00177
:1006700085E08093B10181E08093B20108950E94EA
:100680001F010E9473000E945F00FDCF0F931F9314
:10069000CF93DF938C01EB0109C02196D801ED9136
:1006A000FC910190F081E02DC801099568816623D5
:1006B000A1F7DF91CF911F910F910895EF92FF92D3
:1006C0000F931F93CF93DF938C017B01EA010CC042
:1006D000D7016D917D01D801ED91FC910190F081E0
:1006E000E02DC80109952197209791F7DF91CF91CF
:1006F0001F910F91FF90EF9008952F923F924F928C
:100700005F926F927F928F929F92AF92BF92CF92A1
:10071000DF92EF92FF920F931F93DF93CF93CDB7AA
:10072000DEB7A0970FB6F894DEBF0FBECDBF1C0199
:100730006A017B01411551056105710549F440E3EA
:1007400050E060E070E020E030E00E94380456C0E5
:10075000882499245401422E55246624772401E0EC
:1007600010E00C0F1D1F080D191DC701B601A301D4
:1007700092010E94A004F80160830894811C911CDE
:10078000A11CB11CC701B601A30192010E94A004E3
:10079000C901DA016C017D01C114D104E104F10445
:1007A000F1F681E0E82EF12CEC0EFD1EE80CF91CB0
:1007B0003E010894611C711CD501C4010197A10977
:1007C000B1096C01C818D90816C0F601EE0DFF1D5D
:1007D00040814A3010F4405D01C0495C552747FD17
:1007E0005095652F752FC10120E030E00E9438043C
:1007F0000894E108F1086E147F0439F7A0960FB64B
:10080000F894DEBF0FBECDBFCF91DF911F910F9146
:10081000FF90EF90DF90CF90BF90AF909F908F9020
:100820007F906F905F904F903F902F900895DC01E4
:100830002115310541F4ED91FC910190F081E02DFD
:10084000642F099508950E947D030895EF92FF9209
:100850000F931F939A01E62EFF2400E010E0B801E9
:10086000A7010E9417041F910F91FF90EF90089528
:10087000EF92FF920F931F93CF93DF93EC017A01D6
:100880008B012115310541F4E881F9810190F08156
:10089000E02D642F09951BC02A303105B1F477FF94
:1008A00010C04DE250E060E070E020E030E00E94D7
:1008B000380410950095F094E094E11CF11C011DA2
:1008C000111DCE01B801A7012AE00E947D03DF912E
:1008D000CF911F910F91FF90EF900895629FD001EB
:1008E000739FF001829FE00DF11D649FE00DF11DEB
:1008F000929FF00D839FF00D749FF00D659FF00D9A
:100900009927729FB00DE11DF91F639FB00DE11D86
:10091000F91FBD01CF011124089597FB092E072669
:100920000AD077FD04D049D006D000201AF4709583
:1009300061957F4F0895F6F7909581959F4F0895A3
:10094000A1E21A2EAA1BBB1BFD010DC0AA1FBB1FD3
:10095000EE1FFF1FA217B307E407F50720F0A21B45
:10096000B30BE40BF50B661F771F881F991F1A94B2
:1009700069F760957095809590959B01AC01BD01DC
:10098000CF01089597FB092E05260ED057FD04D000
:10099000D7DF0AD0001C38F450954095309521954A
:1009A0003F4F4F4F5F4F0895F6F7909580957095A4
:1009B00061957F4F8F4F9F4F0895AA1BBB1B51E13D
:1009C00007C0AA1FBB1FA617B70710F0A61BB70BBF
:1009D000881F991F5A95A9F780959095BC01CD0164
:1009E0000895EE0FFF1F0590F491E02D0994F894FF
:1009F000FFCF00000000F20246035E039002BE0239
:100A0000E602A402FFFFFFFFFFFFFFFFFFFFFFFF64
:100A1000FFFFFFFFFFFFFFFFFFFFFFFFFFFFFFFFE6
:100A2000FFFFFFFFFFFFFFFFFFFFFFFFFFFFFFFFD6
:100A3000FFFFFFFFFFFFFFFFFFFFFFFFFFFFFFFFC6
:100A4000FFFFFFFFFFFFFFFFFFFFFFFFFFFFFFFFB6
:100A5000FFFFFFFFFFFFFFFFFFFFFFFFFFFFFFFFA6
:100A6000FFFFFFFFFFFFFFFFFFFFFFFFFFFFFFFF96
:100A7000FFFFFFFFFFFFFFFFFFFFFFFFFFFFFFFF86
:100A800090E00E94F607CA01B9012FEF30E040E084
:100A900050E00E94A207A40193010E94F607C90139
:100AA00081509F4F181619061CF4822F815002C0E6
:100AB00081E0821B851500F5E885F98581E090E0ED
:100AC0000A8802C0880F991F0A94E2F7808360E0C9
:100AD00079E08DE390E0A40193010E94F607215094
:100AE000304040405040CA01B90122E030E040E0CF
:100AF00050E00E94F60704C0E885F9851082950150
:100B0000EC81FD813083EE81FF812083EA85FB85C6
:100B1000208141E050E0CA010E8402C0880F991F75
:100B20000A94E2F7282B2083EA85FB852081CA01FD
:100B30000F8402C0880F991F0A94E2F7282B2083A4
:100B4000EA85FB858081088802C0440F551F0A94FE
:100B5000E2F7842B8083DF91CF911F910F91FF905B
:100B6000EF90DF90CF90BF90AF909F908F907F904D
:100B70006F905F900895DC011296ED91FC911397B0
:100B8000E058FF4F8191919180589F4F2081318192
:100B9000821B930B60E870E00E94C1070895DC019E
:100BA0001296ED91FC911397EE57FF4F2081318102
:100BB00092918291E058F0408217930719F42FEF39
:100BC0003FEF05C0E20FF31F8081282F30E0C901FD
:100BD0000895CF93DF93DC011296ED91FC9113976A
:100BE000EF01CE57DF4F48815981E058FF4F808198
:100BF0009181E058F0408417950719F42FEF3FEFEB
:100C00000CC0E40FF51F2081CA01019660E870E076
:100C10000E94C1079983888330E0C901DF91CF9199
:100C20000895DC011296ED91FC911397EE57FF4F5A
:100C300080819181929382930895FC01A085B18572
:100C400021898C9190E0022E02C0959587950A9497
:100C5000E2F780FFF6CF0484F585E02D60830895E8
:100C600087E691E0909338028093370283EB91E01E
:100C700090933A028093390285EC90E090933C0285
:100C800080933B0284EC90E090933E0280933D027F
:100C900080EC90E09093400280933F0281EC90E0E2
:100CA000909342028093410286EC90E0909344023C
:100CB0008093430284E08093450283E08093460260
:100CC00087E08093470285E08093480281E080932B
:100CD000490208950E9481030E94C6020E94B00248
:100CE000FDCF0F931F93CF93DF938C01EB0109C0CE
:100CF0002196D801ED91FC910190F081E02DC80181
:100D0000099568816623A1F7DF91CF911F910F911B
:100D10000895EF92FF920F931F93CF93DF938C016F
:100D20007B01EA010CC0D7016D917D01D801ED91E5
:100D3000FC910190F081E02DC80109952197209741
:100D400091F7DF91CF911F910F91FF90EF90089550
:100D5000DC01ED91FC910280F381E02D099508956D
:100D60002F923F924F925F926F927F928F929F92BB
:100D7000AF92BF92CF92DF92EF92FF920F931F93A9
:100D8000DF93CF93CDB7DEB7A0970FB6F894DEBF51
:100D90000FBECDBF1C016A017B01411551056105E4
:100DA000710549F440E350E060E070E020E030E09D
:100DB0000E944A0756C0882499245401422E552483
:100DC0006624772401E010E00C0F1D1F080D191D8B
:100DD000C701B601A30192010E94D407F801608304
:100DE0000894811C911CA11CB11CC701B601A30170
:100DF00092010E94D407C901DA016C017D01C1147E
:100E0000D104E104F104F1F681E0E82EF12CEC0EBE
:100E1000FD1EE80CF91C3E010894611C711CD501F3
:100E2000C4010197A109B1096C01C818D90816C0FD
:100E3000F601EE0DFF1D40814A3010F4405D01C007
:100E4000495C552747FD5095652F752FC10120E05E
:100E500030E00E944A070894E108F1086E147F040C
:100E600039F7A0960FB6F894DEBF0FBECDBFCF9175
:100E7000DF911F910F91FF90EF90DF90CF90BF9087
:100E8000AF909F908F907F906F905F904F903F902A
:100E90002F900895EF92FF920F931F93CF93DF93BC
:100EA000EC017A018B012115310541F4E881F981CA
:100EB0000190F081E02D642F09951BC02A30310587
:100EC000B1F477FF10C04DE250E060E070E020E048
:100ED00030E00E944A0710950095F094E094E11CE0
:100EE000F11C011D111DCE01B801A7012AE00E94CD
:100EF000B006DF91CF911F910F91FF90EF90089571
:100F00000F931F938C014DE050E060E070E020E013
:100F100030E00E944A07C8014AE050E060E070E01B
:100F200020E030E00E944A071F910F9108950F932F
:100F30001F938C010E94A806C8010E9480071F9180
:100F40000F910895629FD001739FF001829FE00D81
:100F5000F11D649FE00DF11D929FF00D839FF00D38
:100F6000749FF00D659FF00D9927729FB00DE11DE4
:100F7000F91F639FB00DE11DF91FBD01CF011124C1
:100F8000089597FB092E07260AD077FD04D049D093
:100F900006D000201AF4709561957F4F0895F6F7FA
:100FA000909581959F4F0895A1E21A2EAA1BBB1B15
:100FB000FD010DC0AA1FBB1FEE1FFF1FA217B30725
:100FC000E407F50720F0A21BB30BE40BF50B661F3B
:100FD000771F881F991F1A9469F7609570958095FF
:100FE00090959B01AC01BD01CF01089597FB092E9F
:100FF00005260ED057FD04D0D7DF0AD0001C38F4E8
:1010000050954095309521953F4F4F4F5F4F089534
:10101000F6F790958095709561957F4F8F4F9F4F14
:101020000895AA1BBB1B51E107C0AA1FBB1FA6172F
:10103000B70710F0A61BB70B881F991F5A95A9F781
:1010400080959095BC01CD010895EE0FFF1F05908E
:10105000F491E02D0994F894FFCF68656C6C6F00F3
:101060007365747570000B0C2A2A2A2A2A2A382CD8
:101070000000000000000000000000000000000070
:101080000000000000000000000000000000000060
:101090000000000000000000000000000000000050
:1010A0000000000000000000000000000A0D0E1308
:1010B0001516191A1C232526292A2C323400000063
:1010C000001D0671068906BB05E9051106CF05005E
:1010D000FFFFFFFFFFFFFFFFFFFFFFFFFFFFFFFF20
:1010E000FFFFFFFFFFFFFFFFFFFFFFFFFFFFFFFF10
:1010F000FFFFFFFFFFFFFFFFFFFFFFFFFFFFFFFF00
:10110000661F771F881F991F1A9469F7609570955D
:10111000809590959B01AC01BD01CF01089597FB8F
:10112000092E05260ED057FD04D0D7DF0AD0001CAB
:1011300038F450954095309521953F4F4F4F5F4F74
:101140000895F6F790958095709561957F4F8F4F34
:101150009F4F0895AA1BBB1B51E107C0AA1FBB1FCD
:10116000A617B70710F0A61BB70B881F991F5A9533
:10117000A9F780959095BC01CD010895EE0FFF1F52
:101180000590F491E02D0994F894FFCF7369676E90
:10119000616C2E2E2E0057616974696E672E2E2E9B
:1011A00000770073006100640070006B00670068E6
:1011B00000416E616C797A652049736F626F7420AB
:1011C00049522052656D6F746500000000009C0656
:1011D000F00608073A06680690064E06FFFFFFFF76
:1011E000FFFFFFFFFFFFFFFFFFFFFFFFFFFFFFFF0F
:1011F000FFFFFFFFFFFFFFFFFFFFFFFFFFFFFFFFFF
:101200000FB6F894DEBF0FBECDBF1C016A017B0193
:10121000411551056105710549F440E350E060E076
:1012200070E020E030E00E94940956C088249924A0
:101230005401422E55246624772401E010E00C0F5F
:101240001D1F080D191DC701B601A30192010E94BF
:101250000D0CF80160830894811C911CA11CB11C29
:10126000C701B601A30192010E940D0CC901DA0168
:101270006C017D01C114D104E104F104F1F681E0B7
:10128000E82EF12CEC0EFD1EE80CF91C3E01089432
:10129000611C711CD501C4010197A109B1096C0140
:1012A000C818D90816C0F601EE0DFF1D40814A305E
:1012B00010F4405D01C0495C552747FD5095652FEE
:1012C000752FC10120E030E00E9494090894E108E4
:1012D000F1086E147F0439F7A0960FB6F894DEBFBC
:1012E0000FBECDBFCF91DF911F910F91FF90EF9077
:1012F000DF90CF90BF90AF909F908F907F906F9036
:101300005F904F903F902F900895DC01211531059B
:1013100041F4ED91FC910190F081E02D642F09954D
:1013200008950E94EB080895EF92FF920F931F9388
:10133000CF93DF93EC017A018B012115310541F444
:10134000E881F9810190F081E02D642F09951BC09F
:101350002A303105B1F477FF10C04DE250E060E073
:1013600070E020E030E00E94940910950095F09420
:10137000E094E11CF11C011D111DCE01B801A70173
:101380002AE00E94EB08DF91CF911F910F91FF900F
:10139000EF9008950F931F938C014DE050E060E0B3
:1013A00070E020E030E00E949409C8014AE050E07B
:1013B00060E070E020E030E00E9494091F910F91FE
:1013C00008950F931F938C010E948509C8010E9404
:1013D000CA091F910F9108955058BB27AA270ED014
:1013E0004DC13ED130F043D120F031F49F3F11F494
:1013F0001EF433C10EF4E095E7FB29C1E92F4FD16C
:1014000080F3BA17620773078407950718F071F421
:101410009EF567C10EF4E0950B2EBA2FA02D0B019F
:10142000B90190010C01CA01A0011124FF27591B29
:1014300099F0593F50F4503E68F11A16F040A22F2F
:10144000232F342F4427585FF3CF469537952795A0
:10145000A795F0405395C9F77EF41F16BA0B620B9F
:10146000730B840BBAF09150A1F0FF0FBB1F661FE6
:10147000771F881FC2F70EC0BA0F621F731F841F29
:1014800048F4879577956795B795F7959E3F08F04F
:10149000B3CF9395880F08F09927EE0F979587950E
:1014A00008950CD0EBC0E3D040F0DAD030F021F456
:1014B0005F3F19F0CCC0511115C1CFC0F0D098F3E7
:1014C0009923C9F35523B1F3951B550BBB27AA27C5
:1014D00062177307840738F09F5F5F4F220F331F37
:1014E000441FAA1FA9F333D00E2E3AF0E0E830D003
:1014F00091505040E695001CCAF729D0FE2F27D006
:10150000660F771F881FBB1F261737074807AB07D3
:10151000B0E809F0BB0B802DBF01FF2793585F4F48
:101520002AF09E3F510568F092C0DCC05F3FECF3AB
:10153000983EDCF3869577956795B795F7959F5F0D
:10154000C9F7880F911D9695879597F90895E1E061
:10155000660F771F881FBB1F621773078407BA07C0
:1015600020F0621B730B840BBA0BEE1F88F7E0951B
:10157000089504D06894B111B5C0089598D088F04A
:101580009F5790F0B92F9927B751A0F0D1F0660F6F
:10159000771F881F991F1AF0BA95C9F712C0B1308A
:1015A00081F09FD0B1E008959CC0672F782F8827E5
:1015B000B85F39F0B93FCCF3869577956795B395C9
:1015C000D9F73EF490958095709561957F4F8F4F38
:1015D0009F4F0895E89409C097FB3EF4909580953D
:1015E000709561957F4F8F4F9F4F9923A9F0F92FE9
:1015F00096E9BB279395F695879577956795B79567
:10160000F111F8CFFAF4BB0F11F460FF1BC06F5F4C
:101610007F4F8F4F9F4F16C0882311F096E911C05E
:10162000772321F09EE8872F762F05C0662371F07F
:1016300096E8862F70E060E02AF09A95660F771F93
:10164000881FDAF7880F9695879597F9089597F987
:101650009F6780E870E060E008959FEF80EC089558
:1016600000240A9416161706180609060895002481
:101670000A9412161306140605060895092E0394FB
:10168000000C11F4882352F0BB0F40F4BF2B11F46F
:1016900060FF04C06F5F7F4F8F4F9F4F089557FDCE
:1016A0009058440F551F59F05F3F71F04795880FD0
:1016B00097FB991F61F09F3F79F087950895121667
:1016C00013061406551FF2CF4695F1DF08C0161613
:1016D00017061806991FF1CF8695710561050894C4
:1016E0000895E894BB2766277727CB0197F90895DB
:1016F0000BD0C4CFB5DF28F0BADF18F0952309F07E
:10170000A6CFABCF1124EECFCADFA0F3959FD1F3C4
:10171000950F50E0551F629FF001729FBB27F00D9F
:10172000B11D639FAA27F00DB11DAA1F649F6627F4
:10173000B00DA11D661F829F2227B00DA11D621F43
:10174000739FB00DA11D621F839FA00D611D221FFD
:10175000749F3327A00D611D231F849F600D211DE1
:10176000822F762F6A2F11249F5750408AF0E1F084
:1017700088234AF0EE0FFF1FBB1F661F771F881FCD
:1017800091505040A9F79E3F510570F060CFAACF0D
:101790005F3FECF3983EDCF3869577956795B795B8
:1017A000F795E7959F5FC1F7FE2B880F911D9695E2
:1017B000879597F90895629FD001739FF001829FEA
:1017C000E00DF11D649FE00DF11D929FF00D839FD0
:1017D000F00D749FF00D659FF00D9927729FB00D6D
:1017E000E11DF91F639FB00DE11DF91FBD01CF0180
:1017F0001124089597FB092E07260AD077FD04D0FF
:1018000049D006D000201AF4709561957F4F089555
:10181000F6F7909581959F4F0895A1E21A2EAA1B85
:10182000BB1BFD010DC0AA1FBB1FEE1FFF1FA21790
:10183000B307E407F50720F0A21BB30BE40BF50B8D
:10184000661F771F881F991F1A9469F76095709516
:10185000809590959B01AC01BD01CF01089597FB48
:10186000092E05260ED057FD04D0D7DF0AD0001C64
:1018700038F450954095309521953F4F4F4F5F4F2D
:101880000895F6F790958095709561957F4F8F4FED
:101890009F4F0895AA1BBB1B51E107C0AA1FBB1F86
:1018A000A617B70710F0A61BB70B881F991F5A95EC
:1018B000A9F780959095BC01CD010895EE0FFF1F0B
:1018C0000590F491E02D0994F894FFCF02000000F8
:1018D00000006008B408CC08FE072C085408120861
:1018E000FFFFFFFFFFFFFFFFFFFFFFFFFFFFFFFF08
:1018F000FFFFFFFFFFFFFFFFFFFFFFFFFFFFFFFFF8
:101900001A2EAA1BBB1BFD010DC0AA1FBB1FEE1F79
:10191000FF1FA217B307E407F50720F0A21BB30BC4
:10192000E40BF50B661F771F881F991F1A9469F740
:1019300060957095809590959B01AC01BD01CF019C
:10194000089597FB092E05260ED057FD04D0D7DF4A
:101950000AD0001C38F450954095309521953F4FA2
:101960004F4F5F4F0895F6F790958095709561956C
:101970007F4F8F4F9F4F0895AA1BBB1B51E107C09C
:10198000AA1FBB1FA617B70710F0A61BB70B881F0F
:10199000991F5A95A9F780959095BC01CD0108959E
:1019A000EE0FFF1F0590F491E02D0994F894FFCFFE
:1019B00009000D0000000000D20826093E09700849
:1019C0009E08C6088408FFFFFFFFFFFFFFFFFFFF21
:1019D000FFFFFFFFFFFFFFFFFFFFFFFFFFFFFFFF17
:1019E000FFFFFFFFFFFFFFFFFFFFFFFFFFFFFFFF07
:1019F000FFFFFFFFFFFFFFFFFFFFFFFFFFFFFFFFF7
:101A0000FFFFFFFFFFFFFFFFFFFFFFFFFFFFFFFFE6
:107800000C94343C0C94513C0C94513C0C94513CE1
:107810000C94513C0C94513C0C94513C0C94513CB4
:107820000C94513C0C94513C0C94513C0C94513CA4
:107830000C94513C0C94513C0C94513C0C94513C94
:107840000C94513C0C94513C0C94513C0C94513C84
:107850000C94513C0C94513C0C94513C0C94513C74
:107860000C94513C0C94513C11241FBECFEFD8E036
:10787000DEBFCDBF11E0A0E0B1E0ECE9FFE702C060
:1078800005900D92A230B107D9F712E0A2E0B1E065
:1078900001C01D92AD30B107E1F70E942D3D0C945F
:1078A000CC3F0C94003C982F959595959595959582
:1078B000905D8F708A307CF0282F295A8091C0000B
:1078C00085FFFCCF9093C6008091C00085FFFCCF60
:1078D0002093C6000895282F205DF0CF982F809127
:1078E000C00085FFFCCF9093C6000895EF92FF92F1
:1078F0000F931F93EE24FF2487018091C00087FD22
:1079000017C00894E11CF11C011D111D81E4E8164B
:1079100082E4F8068FE0080780E0180770F3E09132
:107920000401F091050109958091C00087FFE9CF1E
:107930008091C6001F910F91FF90EF9008950E94D3
:10794000763C982F8091C00085FFFCCF9093C600B5
:1079500091362CF490330CF09053892F089597555D
:10796000892F08951F930E949F3C182F0E949F3CCF
:107970001295107F810F1F9108951F93182F882350
:1079800021F00E94763C1150E1F71F9108951F935A
:10799000182F0E94763C803249F0809103018F5F5E
:1079A000809303018530C1F01F9108958091C0003C
:1079B00085FFFCCF84E18093C6008091C00085FFE5
:1079C000FCCF1093C6008091C00085FFFCCF80E102
:1079D0008093C6001F910895E0910401F091050184
:1079E00009951F9108950E94763C803241F0809164
:1079F00003018F5F80930301853081F008958091AA
:107A0000C00085FFFCCF84E18093C6008091C00058
:107A100085FFFCCF80E18093C6000895E0910401CA
:107A2000F09105010995089540E951E08823A1F0FE
:107A30002D9A28EE33E0FA013197F1F721503040CA
:107A4000D1F72D9828EE33E0FA013197F1F7215064
:107A50003040D1F7815061F708953F924F925F9285
:107A60006F927F928F929F92AF92BF92CF92DF924E
:107A7000EF92FF920F931F93CF93DF93000080E16B
:107A80008093C4001092C50088E18093C10086E015
:107A90008093C2005098589A259A81E00E94143D24
:107AA00024E1F22E9EE1E92E85E9D82E0FE0C02ECA
:107AB00010E1B12EAA24A394B1E49B2EA6E58A2E50
:107AC000F2E57F2EE0E26E2E79E4572E63E5462E36
:107AD00050E5352E0E94763C8033B1F18133B9F107
:107AE000803409F46FC0813409F476C0823409F41B
:107AF00085C0853409F488C0803531F1823521F1A3
:107B0000813511F1853509F485C0863509F48DC0BC
:107B1000843609F496C0843709F403C1853709F423
:107B200072C1863709F466C0809103018F5F80932C
:107B30000301853079F6E0910401F0910501099582
:107B40000E94763C803351F60E94F33CC3CF0E94E2
:107B5000763C803249F78091C00085FFFCCFF092DF
:107B6000C6008091C00085FFFCCF9092C600809136
:107B7000C00085FFFCCF8092C6008091C00085FFC9
:107B8000FCCF7092C6008091C00085FFFCCF609250
:107B9000C6008091C00085FFFCCF5092C600809146
:107BA000C00085FFFCCF4092C6008091C00085FFD9
:107BB000FCCF3092C6008091C00085FFFCCFB09210
:107BC000C60088CF0E94763C863808F4BDCF0E945C
:107BD000763C0E94F33C7ECF0E94763C803809F4CC
:107BE0009CC0813809F40BC1823809F43CC1883942
:107BF00009F48FC080E00E94C73C6CCF84E10E94F2
:107C0000BD3C0E94F33C66CF85E00E94BD3C0E94D3
:107C1000F33C60CF0E94763C809306010E94763C44
:107C2000809307010E94F33C55CF0E94763C80333D
:107C300009F41DC183E00E94BD3C80E00E94C73C66
:107C400049CF0E94763C809309020E94763C809343
:107C5000080280910C028E7F80930C020E94763C79
:107C6000853409F415C18091080290910902892B8D
:107C700089F000E010E00E94763CF801E85FFE4FDA
:107C800080830F5F1F4F80910802909109020817AF
:107C9000190788F30E94763C803209F045CF809125
:107CA0000C0280FF01C16091060170910701660F0F
:107CB000771F7093070160930601A0910802B091AD
:107CC00009021097C9F0E8E0F1E09B01AD014E0F09
:107CD0005F1FF999FECF32BD21BD819180BDFA9A17
:107CE000F99A2F5F3F4FE417F50799F76A0F7B1F4B
:107CF00070930701609306018091C00085FFFCCF5F
:107D0000F092C6008091C00085FFFCCFB092C60003
:107D1000E1CE83E00E94C73CDDCE82E00E94C73CFA
:107D2000D9CE0E94763C809309020E94763C8093D3
:107D300008028091060190910701880F991F909386
:107D40000701809306010E94763C853409F4A6C0A1
:107D500080910C028E7F80930C020E94763C8032D0
:107D600009F0B8CE8091C00085FFFCCFF092C6002C
:107D7000609108027091090261157105B9F140E046
:107D800050E080910C02A82FA170B82FB27011C0E2
:107D9000BB2309F45CC0E0910601F0910701319624
:107DA000F0930701E09306014F5F5F4F46175707B7
:107DB000E8F4AA2369F3F999FECF209106013091E6
:107DC000070132BD21BDF89A90B58091C00085FFB2
:107DD000FCCF9093C6002F5F3F4F30930701209355
:107DE00006014F5F5F4F4617570718F38091C00099
:107DF00085FDE5CE8091C00085FFF8CFE0CE81E023
:107E00000E94C73C67CE0E94763C803209F08CCE3F
:107E10008091C00085FFFCCFF092C6008091C00029
:107E200085FFFCCFE092C6008091C00085FFFCCFAB
:107E3000D092C6008091C00085FFFCCFC092C600E2
:107E40008091C00085FFFCCFB092C60043CEE09188
:107E50000601F091070194918091C00085FFFCCF4D
:107E60009093C6009CCF80E10E94C73C33CE0E9415
:107E7000763C0E94763C182F0E94763C112309F430
:107E800083C0113009F484C08FE00E94C73C22CE29
:107E900080910C02816080930C02E5CE80910C02EF
:107EA000816080930C0259CF809107018823880F4D
:107EB000880B8A2180930B02809106019091070123
:107EC000880F991F90930701809306018091080203
:107ED00080FF09C080910802909109020196909359
:107EE000090280930802F894F999FECF1127E091D6
:107EF0000601F0910701C8E0D1E08091080290915D
:107F00000902103091F40091570001700130D9F34B
:107F100003E000935700E89500915700017001308D
:107F2000D9F301E100935700E89509901990009169
:107F3000570001700130D9F301E000935700E89534
:107F40001395103498F011270091570001700130FB
:107F5000D9F305E000935700E895009157000170B0
:107F60000130D9F301E100935700E895329602976A
:107F700009F0C7CF103011F00296E5CF112480919F
:107F8000C00085FFB9CEBCCE8EE10E94C73CA2CD19
:107F900085E90E94C73C9ECDF894FFCF8000FFFF8B
:107FA000FFFFFFFFFFFFFFFFFFFFFFFFFFFFFFFFE1
:107FB000FFFFFFFFFFFFFFFFFFFFFFFFFFFFFFFFD1
:107FC000FFFFFFFFFFFFFFFFFFFFFFFFFFFFFFFFC1
:107FD000FFFFFFFFFFFFFFFFFFFFFFFFFFFFFFFFB1
:107FE000FFFFFFFFFFFFFFFFFFFFFFFFFFFFFFFFA1
:107FF000FFFFFFFFFFFFFFFFFFFFFFFFFFFFFFFF91
:00000001FF
