:100000000C9463000C948B000C948B000C948B006C
:100010000C948B000C948B000C948B000C948B0034
:100020000C948B000C948B000C948B000C948B0024
:100030000C948B000C948B000C948B000C948B0014
:100040000C945F020C948B000C94D9030C948B00DD
:100050000C948B000C948B000C948B000C948B00F4
:100060000C948B000C948B000000000024002700EF
:100070002A0000000000250028002B0000000000DE
:1000800023002600290004040404040404040202DA
:100090000202020203030303030301020408102007
:1000A0004080010204081020010204081020000012
:1000B0000007000201000003040600000000000029
:1000C0000000AF01840511241FBECFEFD8E0DEBFD2
:1000D000CDBF11E0A0E0B1E0EEE0FDE002C0059090
:1000E0000D92A231B107D9F711E0A2E1B1E001C050
:1000F0001D92A83DB107E1F710E0C6ECD0E004C0C6
:100100002297FE010E948106C23CD107C9F70E94D6
:10011000BE050C9485060C9400001F93FC019927E2
:100120008827BC01E89411911032E9F3193010F0DE
:100130001E30C8F31B3251F01D3249F4689406C0DA
:100140000E94B400610F711D811D911D119110530A
:100150001A30B0F33EF490958095709561957F4F7D
:100160008F4F9F4F1F910895592F482F372F262FBC
:10017000660F771F881F991F660F771F881F991FAB
:10018000620F731F841F951F660F771F881F991FAB
:1001900008957F928F929F92AF92BF92CF92DF92FB
:1001A000EF92FF920F931F93CF93DF937A018B010E
:1001B0004901B2E1CB2EB1E0DB2EE9012197AA245F
:1001C000BB247724739438C080E090E021E030E0D5
:1001D00040E050E005C0220F331F441F551F019619
:1001E0008C179D07C4F3C801B7010E942E06213069
:1001F000310541055105B9F420E030E081E090E09F
:10020000A0E0B0E006C0880F991FAA1FBB1F2F5F98
:100210003F4F2C173D07BCF3E81AF90A0A0B1B0BDA
:10022000F601708202C0F60110820894A11CB11C74
:100230000894C11CD11C2197A814B9042CF2DF9199
:10024000CF911F910F91FF90EF90DF90CF90BF90D3
:10025000AF909F908F907F900895EF92FF920F93B1
:100260001F93CF93DF937C01CB0164E370E00E9486
:100270001B068B0101501040C0E0D0E013C0F70115
:10028000808161E00E9485038DE090E00E941A0366
:10029000F701808160E00E9485038DE090E00E947C
:1002A0001A032196C017D10754F3DF91CF911F9104
:1002B0000F91FF90EF900895CF92DF92EF92FF920F
:1002C0000F931F93CF93DF937C01690126E130E008
:1002D0000E94C90000E010E023C0C70166EF79E08A
:1002E0000E942D01C2E1D1E08881882319F48CE7B6
:1002F00091E002C082E593E00E941A03C70166E71D
:1003000072E00E942D01219681E0C832D80761F782
:100310006DEC70E080E090E00E94C1020F5F1F4F23
:100320000C151D05D4F2DF91CF911F910F91FF9015
:10033000EF90DF90CF900895EF92FF920F931F936D
:100340008C01F62EE72E862F61E00E945F03F801F4
:10035000F082E1821F910F91FF90EF90089588E263
:1003600091E063E070E00E949C010895CF92DF92DB
:10037000EF92FF920F931F93DF93CF93CDB7DEB72A
:1003800027970FB6F894DEBF0FBECDBF85EC91E086
:100390000E940F05181619062CF02FEF3FEF4FEFB4
:1003A0005FEF28C065E070E080E090E00E94C1024D
:1003B00085EC91E00E940F056C0100E010E07E01E9
:1003C0000894E11CF11C0AC085EC91E00E943D05F7
:1003D000F701E00FF11F80830F5F1F4F0C151D0504
:1003E0009CF30E0D1F1DF8011082C7010E948D00A5
:1003F0009B01AC01B901CA0127960FB6F894DEBF84
:100400000FBECDBFCF91DF911F910F91FF90EF9065
:10041000DF90CF9008950E94B6016F3F2FEF7207D3
:100420002FEF82072FEF920721F160933401709331
:10043000350180933601909337018DE061E00E9491
:10044000850364EF71E080E090E00E94C1028DE0DE
:1004500060E00E9485034091340150913501609124
:1004600036017091370188E291E023E030E00E948C
:100470005C0164EF71E080E090E00E94C1020895A9
:1004800085EC91E040E855E260E070E00E941604DF
:100490000E94B30260933001709331018093320166
:1004A0009093330160932C0170932D0180932E0162
:1004B00090932F018DE061E00E945F0308951F92E9
:1004C0000F920FB60F9211242F933F934F935F9388
:1004D0006F937F938F939F93AF93BF9320913C0132
:1004E00030913D0140913E0150913F01709140019A
:1004F000DA01C9010296A11DB11D672F6A5F6D3730
:1005000030F06D57DA01C9010396A11DB11D60934A
:10051000400180933C0190933D01A0933E01B09334
:100520003F018091380190913901A0913A01B09139
:100530003B010196A11DB11D8093380190933901B3
:10054000A0933A01B0933B01BF91AF919F918F91DE
:100550007F916F915F914F913F912F910F900FBEBF
:100560000F901F9018958FB7F89420913C0130910F
:100570003D0140913E0150913F018FBFB901CA0139
:1005800008959B01AC017FB7F89480913801909158
:100590003901A0913A01B0913B0166B5A89B05C015
:1005A0006F3F19F00196A11DB11D7FBFBA2FA92F72
:1005B000982F8827860F911DA11DB11D63E0880F1C
:1005C000991FAA1FBB1F6A95D1F7BC012DC0FFB7A9
:1005D000F8948091380190913901A0913A01B0913D
:1005E0003B01E6B5A89B05C0EF3F19F00196A11DA0
:1005F000B11DFFBFBA2FA92F982F88278E0F911DED
:10060000A11DB11DE3E0880F991FAA1FBB1FEA952A
:10061000D1F7861B970B885E9340C8F2215030407B
:100620004040504068517C4F21153105410551052E
:1006300071F60895019739F0019729F0880F991FF5
:1006400001970197F1F70895789484B5826084BD8D
:1006500084B5816084BD85B5826085BD85B58160C6
:1006600085BDEEE6F0E0808181608083E1E8F0E026
:100670001082808182608083808181608083E0E855
:10068000F0E0808181608083E1EBF0E08081846034
:100690008083E0EBF0E0808181608083EAE7F0E036
:1006A000808184608083808182608083808181609A
:1006B00080838081806880831092C1000895482FD4
:1006C00050E0CA0186569F4FFC0124914A575F4F64
:1006D000FA0184918823C1F0E82FF0E0EE0FFF1FAC
:1006E000E859FF4FA591B491662341F49FB7F89460
:1006F0008C91209582238C939FBF08959FB7F89487
:100700008C91822B8C939FBF0895482F50E0CA0193
:1007100082559F4FFC012491CA0186569F4FFC01D0
:1007200034914A575F4FFA019491992309F440C0DC
:10073000222331F1233021F4809180008F7705C08E
:10074000243031F4809180008F7D8093800018C028
:10075000213019F484B58F7704C0223021F484B598
:100760008F7D84BD0DC0263021F48091B0008F773D
:1007700005C0273029F48091B0008F7D8093B000B0
:10078000E92FF0E0EE0FFF1FEE58FF4FA591B49157
:10079000662341F49FB7F8948C91309583238C9312
:1007A0009FBF08959FB7F8948C91832B8C939FBF24
:1007B00008951F920F920FB60F9211242F933F931B
:1007C0004F935F936F937F938F939F93AF93BF9359
:1007D000EF93FF934091C600E091C101F091C201F7
:1007E000CF01019660E870E00E941B069C01809199
:1007F000C3019091C4012817390739F0EF5BFE4F10
:1008000040833093C2012093C101FF91EF91BF91CA
:10081000AF919F918F917F916F915F914F913F9198
:100820002F910F900FBE0F901F9018955F926F92AF
:100830007F928F929F92AF92BF92CF92DF92EF9270
:10084000FF920F931F93CF93DF93EC013A014B017B
:10085000413281EA580787E0680780E078070CF0AA
:100860007FC060E472E48FE090E0A40193010E94F5
:1008700050062150304040405040CA01B90122E0AA
:1008800030E040E050E00E94500659016A01A601A4
:100890009501209530954095509594E0220F331F97
:1008A000441F551F9A95D1F760E072E18AE790E006
:1008B0000E945006CA01B9012FEF30E040E050E03D
:1008C0000E94FC05A40193010E945006C9018150B9
:1008D0009F4F181619061CF4522E5A9403C0552423
:1008E0005394521A60E874E88EE190E0A4019301F9
:1008F0000E9450062150304040405040CA01B9018A
:1009000022E030E040E050E00E9450062095309513
:100910004095509583E0220F331F441F551F8A9541
:10092000D1F760E072E18AE790E00E945006CA01C8
:10093000B9012FEF30E040E050E00E94FC05A40137
:1009400093010E945006C90181509F4F1816190645
:100950001CF4822F815002C081E0821B851500F5B6
:10096000E885F98581E090E00A8802C0880F991F28
:100970000A94E2F7808360E874E88EE190E0A401D5
:1009800093010E9450062150304040405040CA011F
:10099000B90122E030E040E050E00E94500604C07F
:1009A000E885F98510829501EC81FD813083EE8127
:1009B000FF812083EA85FB85208141E050E0CA0168
:1009C0000E8402C0880F991F0A94E2F7282B208317
:1009D000EA85FB852081CA010F8402C0880F991F18
:1009E0000A94E2F7282B2083EA85FB85808108881A
:1009F00002C0440F551F0A94E2F7842B8083DF91D5
:100A0000CF911F910F91FF90EF90DF90CF90BF900B
:100A1000AF909F908F907F906F905F900895DC01D2
:100A20001296ED91FC911397E058FF4F81919191AF
:100A300080589F4F20813181821B930B60E870E0CA
:100A40000E941B060895DC011296ED91FC9113970C
:100A5000EE57FF4F2081318192918291E058F04012
:100A60008217930719F42FEF3FEF05C0E20FF31F32
:100A70008081282F30E0C9010895CF93DF93DC01F6
:100A80001296ED91FC911397EF01CE57DF4F4881FD
:100A90005981E058FF4F80819181E058F0408417E0
:100AA000950719F42FEF3FEF0CC0E40FF51F2081DD
:100AB000CA01019660E870E00E941B069983888352
:100AC00030E0C901DF91CF910895DC011296ED91DC
:100AD000FC911397EE57FF4F8081918192938293FF
:100AE0000895FC01A085B18521898C9190E0022EAA
:100AF00002C0959587950A94E2F780FFF6CF0484AB
:100B0000F585E02D6083089584E091E09093C6011F
:100B10008093C50181E491E09093C8018093C7015F
:100B200085EC90E09093CA018093C90184EC90E039
:100B30009093CC018093CB0180EC90E09093CE0118
:100B40008093CD0181EC90E09093D0018093CF0110
:100B500086EC90E09093D2018093D10184E0809361
:100B6000D30183E08093D40187E08093D50185E0B1
:100B70008093D60181E08093D70108950E942403D9
:100B80000E9440020E940B02FDCF0F931F93CF9350
:100B9000DF938C01EB0109C02196D801ED91FC9106
:100BA0000190F081E02DC801099568816623A1F7C5
:100BB000DF91CF911F910F910895EF92FF920F93C4
:100BC0001F93CF93DF938C017B01EA010CC0D70107
:100BD0006D917D01D801ED91FC910190F081E02DA6
:100BE000C80109952197209791F7DF91CF911F9127
:100BF0000F91FF90EF900895629FD001739FF001D5
:100C0000829FE00DF11D649FE00DF11D929FF00D9C
:100C1000839FF00D749FF00D659FF00D9927729FD3
:100C2000B00DE11DF91F639FB00DE11DF91FBD015E
:100C3000CF011124089597FB092E07260AD077FDCE
:100C400004D049D006D000201AF4709561957F4FEA
:100C50000895F6F7909581959F4F0895A1E21A2E79
:100C6000AA1BBB1BFD010DC0AA1FBB1FEE1FFF1F50
:100C7000A217B307E407F50720F0A21BB30BE40BA0
:100C8000F50B661F771F881F991F1A9469F76095E7
:100C90007095809590959B01AC01BD01CF010895A1
:100CA00097FB092E05260ED057FD04D0D7DF0AD0BA
:100CB000001C38F450954095309521953F4F4F4F8B
:100CC0005F4F0895F6F790958095709561957F4FE9
:100CD0008F4F9F4F0895AA1BBB1B51E107C0AA1F4E
:100CE000BB1FA617B70710F0A61BB70B881F991FCD
:100CF0005A95A9F780959095BC01CD010895EE0F06
:0E0D0000FF1F0590F491E02D0994F894FFCFA9
:100D0E00000000007105C505DD050F053D056505F3
:020D1E002305AB
:00000001FF
