:100000000C9461000C947E000C947E000C947E0095
:100010000C947E000C947E000C947E000C947E0068
:100020000C947E000C947E000C947E000C947E0058
:100030000C947E000C947E000C947E000C947E0048
:100040000C949A000C947E000C947E000C947E001C
:100050000C947E000C947E000C947E000C947E0028
:100060000C947E000C947E00000000002400270009
:100070002A0000000000250028002B0000000000DE
:1000800023002600290004040404040404040202DA
:100090000202020203030303030301020408102007
:1000A0004080010204081020010204081020000012
:1000B0000007000201000003040600000000000029
:1000C000000011241FBECFEFD8E0DEBFCDBF11E08E
:1000D000A0E0B1E0EAEFF3E002C005900D92A0309D
:1000E000B107D9F711E0A0E0B1E001C01D92A9303D
:1000F000B107E1F70E94F4010C94FB010C9400009D
:100100008DE061E00E949C0168EE73E080E090E089
:100110000E94E2008DE060E00E949C0168EE73E0C6
:1001200080E090E00E94E20008958DE061E00E948E
:10013000760108951F920F920FB60F9211242F93FC
:100140003F938F939F93AF93BF93809104019091BE
:100150000501A0910601B0910701309108010196B7
:10016000A11DB11D232F2D5F2D3720F02D57019696
:10017000A11DB11D209308018093040190930501F6
:10018000A0930601B09307018091000190910101B5
:10019000A0910201B09103010196A11DB11D8093B0
:1001A000000190930101A0930201B0930301BF915C
:1001B000AF919F918F913F912F910F900FBE0F9014
:1001C0001F9018959B01AC017FB7F89480910001B6
:1001D00090910101A0910201B091030166B5A89B25
:1001E00005C06F3F19F00196A11DB11D7FBFBA2F49
:1001F000A92F982F8827860F911DA11DB11D62E0A0
:10020000880F991FAA1FBB1F6A95D1F7BC012DC08B
:10021000FFB7F8948091000190910101A091020133
:10022000B0910301E6B5A89B05C0EF3F19F0019618
:10023000A11DB11DFFBFBA2FA92F982F88278E0FA0
:10024000911DA11DB11DE2E0880F991FAA1FBB1FC0
:10025000EA95D1F7861B970B885E9340C8F2215030
:1002600030404040504068517C4F211531054105D8
:10027000510571F60895789484B5826084BD84B583
:10028000816084BD85B5826085BD85B5816085BD91
:10029000EEE6F0E0808181608083E1E8F0E01082AA
:1002A000808182608083808181608083E0E8F0E0EB
:1002B000808181608083E1EBF0E0808184608083D5
:1002C000E0EBF0E0808181608083EAE7F0E080810C
:1002D000846080838081826080838081816080836C
:1002E0008081806880831092C1000895482F50E07B
:1002F000CA0186569F4FFC0124914A575F4FFA016D
:1003000084918823C1F0E82FF0E0EE0FFF1FE85939
:10031000FF4FA591B491662341F49FB7F8948C9157
:10032000209582238C939FBF08959FB7F8948C915A
:10033000822B8C939FBF0895482F50E0CA018255AD
:100340009F4FFC012491CA0186569F4FFC013491B6
:100350004A575F4FFA019491992309F444C022232C
:1003600051F1233071F0243028F42130A1F02230F3
:1003700011F514C02630B1F02730C1F02430D9F483
:1003800004C0809180008F7703C0809180008F7DB2
:100390008093800010C084B58F7702C084B58F7DB4
:1003A00084BD09C08091B0008F7703C08091B000F8
:1003B0008F7D8093B000E92FF0E0EE0FFF1FEE5825
:1003C000FF4FA591B491662341F49FB7F8948C91A7
:1003D000309583238C939FBF08959FB7F8948C9199
:1003E000832B8C939FBF08950E943B010E94950030
:1003F0000E948000FDCFF894FFCFC1F02430D9F4E3
:100400002B0BC616D706E4F0C801B70120E030E098
:1004100040EA5FE30E94EA0B20E030E048E452E467
:100420000E94C30A20E030E040E85FE30E945F0AD8
:100430000E942B0B6C157D051CF021E030E076C08E
:10044000B501660F771F6C0F7D1F882777FD80959C
:10045000982F0E945E0B7B018C0120E030E040E48D
:100460005FE30E94EA0B20E030E048E452E40E949F
:10047000C30A0E942B0BC616D706E4F0C801B701C9
:1004800020E030E040EA5FE30E94EA0B20E030E049
:1004900048E452E40E94C30A20E030E040E85FE311
:1004A0000E945F0A0E942B0B6C157D051CF022E058
:1004B00030E03CC0C501880F991F8A0D9B1DC80FF5
:1004C000D91FBE01882777FD8095982F0E945E0B6B
:1004D0007B018C0120E030E040E45FE30E94EA0B06
:1004E00020E030E048E452E40E94C30A0E942B0B53
:1004F000C616D70674F1C801B70120E030E040EA23
:100500005FE30E94EA0B20E030E048E452E40E94FE
:10051000C30A20E030E040E85FE30E945F0A0E94E7
:100520002B0B6C157D05ACF023E030E0F3018081EE
:100530009181019691838083821793076CF01182D9
:100540001082D2018D919C91119701968D939C936D
:1005500003C088248A94982CC401DF91CF911F9105
:100560000F91FF90EF90DF90CF90BF90AF909F9052
:100570008F907F906F905F904F9008952F923F9251
:100580004F925F926F927F928F929F92AF92BF92A3
:10059000CF92DF92EF92FF920F931F93DF93CF934F
:1005A00000D000D000D0CDB7DEB71C015B01809138
:1005B000B3018D3008F47EC081E090E09A83898396
:1005C0001C821B8223E0822E912C8C0E9D1EC10169
:1005D0002E010894411C511CA201940109E713E06B
:1005E0000E94B201892B09F065C0C101B501A201C9
:1005F00094010E94B201019709F05CC0C101B501EC
:10060000A20194010E94B201892B09F053C0CC24AD
:10061000DD24760166247724C4018D829E832FC059
:10062000C101B501A2012D813E8109E713E00E94BD
:10063000B2014C01C101B501A2012D813E810E9490
:10064000B20121E08216910479F4892B99F5CC0C42
:10065000DD1CEE1CFF1C81E090E0A0E0B0E0C82AA9
:10066000D92AEA2AFB2A08C0892821F5019711F521
:10067000CC0CDD1CEE1CFF1C0894611C711C8091CD
:10068000B30190E029813A81281739074CF2D5014E
:1006900017967C926E921697F501C282D382E482FD
:1006A000F58283E090E09183808321E030E040E0B8
:1006B00050E004C020E030E040E050E0B901CA0161
:1006C00026960FB6F894DEBF0FBECDBFCF91DF9157
:1006D0001F910F91FF90EF90DF90CF90BF90AF9060
:1006E0009F908F907F906F905F904F903F902F9052
:1006F00008952F923F924F925F926F927F928F92C6
:100700009F92AF92BF92CF92DF92EF92FF920F93A0
:100710001F93DF93CF93CDB7DEB728970FB6F8942A
:10072000DEBF0FBECDBF1C014B01DB011A968D91C0
:100730009C911B97181619060CF0A4C081E090E05C
:100740009A8389831896ED91FC9119978281938100
:10075000899708F497C0828193818734910508F0C6
:1007600091C0AFC084819581459708F08BC0B2C01D
:10077000C101B401A30195010CEB11E00E94B2018B
:10078000019709F07FC0CC24DD2476014424552450
:10079000C501AD829E83C3016F82988756C0C10197
:1007A000B4014F8158852D813E810CEB11E00E94F0
:1007B000B2013C01B3E04B16510461F4C101B40134
:1007C0004F8158852D813E810E94B20168167906BD
:1007D00009F058C0C101B4014F8158852D813E8177
:1007E0000CEB11E00E94B2015C01E3E04E165104F3
:1007F00059F4C101B4014F8158852D813E810E9479
:10080000B201A816B906F1F56114710489F4F1E09A
:10081000AF16B104B9F5CC0CDD1CEE1CFF1C81E059
:1008200090E0A0E0B0E0C82AD92AEA2AFB2A0AC050
:1008300091E06916710431F5AB2821F5CC0CDD1C73
:10084000EE1CFF1C0894411C511C29813A81D401E3
:100850001A968D919C911B97281739070CF49FCFFE
:1008600017965C924E921697F401C282D382E4826C
:10087000F58284E090E09183808321E030E040E0E5
:1008800050E004C020E030E040E050E0B901CA018F
:1008900028960FB6F894DEBF0FBECDBFCF91DF9183
:1008A0001F910F91FF90EF90DF90CF90BF90AF908E
:1008B0009F908F907F906F905F904F903F902F9080
:1008C000089582E090E09A838983848195810B97D3
:1008D000C8F248CF83E090E09A8389831C821B8210
:1008E00033E0A32EB12CAC0EBD1EC101B4013E01FC
:1008F0000894611C711CA30195010CEB11E00E948E
:10090000B201892B09F0BECF33CF0F931F93CF9342
:10091000DF938C01EB018BE191E0998788878091CF
:10092000B3018A871B86809117018530B9F5C8010C
:100930000E949800611571058105910591F5C80126
:10094000BE010E943101611571058105910549F5CE
:10095000C801BE010E94BE026115710581059105A5
:1009600001F5C801BE010E94790361157105810579
:100970009105B9F48A859B8506975CF08FEF9FEF10
:10098000998388831F821E821A821B821C821D8289
:1009900008C082E0809317011092B30120E030E09C
:1009A00002C021E030E0C901DF91CF911F910F918A
:1009B00008951F920F920FB60F9211242F933F9319
:1009C0004F935F936F937F938F939F93AF93BF9357
:1009D000EF93FF9381EA8093B200809116010E9409
:1009E000EB06482F8091190190911A01019690937E
:1009F0001A01809319018091B3018C3418F085E0BD
:100A000080931701809117018330D1F0843020F456
:100A1000823009F059C006C0843071F1853009F088
:100A200053C04CC0442309F04FC0809119019091EC
:100A30001A018436910508F443C01092B3011EC018
:100A4000413009F041C08091B301E82FF0E02091DE
:100A5000190130911A01EE0FFF1FEA5EFE4F368337
:100A600025838F5F8093B30110921A0110921901B0
:100A700084E08093170128C04423B9F48091B30126
:100A8000E82FF0E02091190130911A01EE0FFF1FBD
:100A9000EA5EFE4F368325838F5F8093B301109209
:100AA0001A011092190183E0E4CF8091190190910D
:100AB0001A018536910540F085E0DBCF442321F40F
:100AC00010921A011092190180911801882329F0BF
:100AD000442311F42D9A01C02D98FF91EF91BF91FD
:100AE000AF919F918F917F916F915F914F913F91C6
:100AF0002F910F900FBE0F901F9018951092B0007D
:100B0000E1EBF0E080818B7F808380818260808355
:100B100080818E7F8083E0E7F0E080818160808348
:100B200081EA8093B200789482E08093170110925A
:100B3000B3018091160160E00E94710608956091F2
:100B400000017091010184EB91E00E948D000895F5
:100B500084EB91E065EB71E00E948504892B81F1C3
:100B60004091B7015091B8016091B9017091BA01FB
:100B70008EE492E02AE030E00E94530A8091B701AF
:100B80009091B801A091B901B091BA018F3F2FEFB8
:100B900092072FEFA2072FEFB20771F08F5C9043FF
:100BA000AF4FB04021F48091020161E003C0809119
:100BB000020160E00E94970684EB91E00E9492009F
:100BC00008958EE492E040E052EC61E070E00E9413
:100BD000770784EB91E00E947E0508951F920F92A3
:100BE0000FB60F9211242F933F938F939F93AF9340
:100BF000BF938091C5019091C601A091C701B091AA
:100C0000C8013091C9010196A11DB11D232F2D5F8F
:100C10002D3720F02D570196A11DB11D2093C9013C
:100C20008093C5019093C601A093C701B093C801FA
:100C30008091C1019091C201A091C301B091C40102
:100C40000196A11DB11D8093C1019093C201A09393
:100C5000C301B093C401BF91AF919F918F913F9118
:100C60002F910F900FBE0F901F901895789484B518
:100C7000826084BD84B5816084BD85B5826085BD98
:100C800085B5816085BDEEE6F0E08081816080837E
:100C9000E1E8F0E010828081826080838081816061
:100CA0008083E0E8F0E0808181608083E1EBF0E028
:100CB000808184608083E0EBF0E0808181608083CC
:100CC000EAE7F0E0808184608083808182608083B5
:100CD0008081816080838081806880831092C100E0
:100CE0000895482F50E0CA0186569F4FFC01249179
:100CF0004A575F4FFA0184918823C1F0E82FF0E052
:100D0000EE0FFF1FE859FF4FA591B491662341F400
:100D10009FB7F8948C91209582238C939FBF089560
:100D20009FB7F8948C91822B8C939FBF0895482F86
:100D300050E0CA0182559F4FFC012491CA0186569A
:100D40009F4FFC0134914A575F4FFA0194919923C8
:100D500009F440C0222331F1233021F48091800036
:100D60008F7705C0243031F4809180008F7D80938F
:100D7000800018C0213019F484B58F7704C0223068
:100D800021F484B58F7D84BD0DC0263021F480917F
:100D9000B0008F7705C0273029F48091B0008F7D97
:100DA0008093B000E92FF0E0EE0FFF1FEE58FF4FE9
:100DB000A591B491662341F49FB7F8948C91309536
:100DC00083238C939FBF08959FB7F8948C91832BB6
:100DD0008C939FBF0895682F70E0CB0182559F4F81
:100DE000FC012491CB0186569F4FFC0144916A5728
:100DF0007F4FFB019491992319F420E030E038C033
:100E0000222331F1233021F4809180008F7705C0B7
:100E1000243031F4809180008F7D8093800018C051
:100E2000213019F484B58F7704C0223021F484B5C1
:100E30008F7D84BD0DC0263021F48091B0008F7766
:100E400005C0273029F48091B0008F7D8093B000D9
:100E5000892F90E0880F991F84589F4FFC01A5911E
:100E6000B4918C9120E030E0842311F021E030E057
:100E7000C90108951F920F920FB60F9211242F935C
:100E80003F934F935F936F937F938F939F93AF9312
:100E9000BF93EF93FF934091C600E0914A02F09117
:100EA0004B02CF01019660E870E00E946C0C9C013F
:100EB00080914C0290914D022817390739F0E65382
:100EC000FE4F408330934B0220934A02FF91EF91F3
:100ED000BF91AF919F918F917F916F915F914F9152
:100EE0003F912F910F900FBE0F901F9018955F921A
:100EF0006F927F928F929F92AF92BF92CF92DF922A
:100F0000EF92FF920F931F93CF93DF93EC013A017F
:100F10004B01413482E458078FE0680780E078078E
:100F20000CF07FC060E874E88EE190E0A4019301CA
:100F30000E94A10C2150304040405040CA01B901EC
:100F400022E030E040E050E00E94A10C59016A012B
:100F5000A6019501209530954095509594E0220F7B
:100F6000331F441F551F9A95D1F760E074E284EF58
:100F700090E00E94A10CCA01B9012FEF30E040E0DF
:100F800050E00E944D0CA40193010E94A10CC901E4
:100F900081509F4F181619061CF4522E5A9403C004
:100FA00055245394521A60E079E08DE390E0A40157
:100FB00093010E94A10C2150304040405040CA0192
:100FC000B90122E030E040E050E00E94A10C209501
:100FD00030954095509583E0220F331F441F551FD5
:100FE0008A95D1F760E074E284EF90E00E94A10C52
:100FF000CA01B9012FEF30E040E050E00E944D0CF3
:10100000A40193010E94A10CC90181509F4F1816A1
:1010100019061CF4822F815002C081E0821B8515C5
:1010200000F5E885F98581E090E00A8802C0880F24
:10103000991F0A94E2F7808360E079E08DE390E005
:10104000A40193010E94A10C215030404040504027
:10105000CA01B90122E030E040E050E00E94A10C5A
:1010600004C0E885F98510829501EC81FD8130830B
:10107000EE81FF812083EA85FB85208141E050E0FD
:10108000CA010E8402C0880F991F0A94E2F7282B28
:101090002083EA85FB852081CA010F8402C0880F66
:1010A000991F0A94E2F7282B2083EA85FB8580812B
:1010B000088802C0440F551F0A94E2F7842B8083EE
:1010C000DF91CF911F910F91FF90EF90DF90CF9024
:1010D000BF90AF909F908F907F906F905F9008959A
:1010E000DC011296ED91FC911397E058FF4F81912E
:1010F000919180589F4F20813181821B930B60E832
:1011000070E00E946C0C0895DC011296ED91FC9148
:101110001397EE57FF4F2081318192918291E058D1
:10112000F0408217930719F42FEF3FEF05C0E20F4D
:10113000F31F8081282F30E0C9010895CF93DF93FA
:10114000DC011296ED91FC911397EF01CE57DF4F22
:1011500048815981E058FF4F80819181E058F040EB
:101160008417950719F42FEF3FEF0CC0E40FF51F1C
:101170002081CA01019660E870E00E946C0C99839E
:10118000888330E0C901DF91CF910895DC01129688
:10119000ED91FC911397EE57FF4F808191819293CF
:1011A00082930895FC01A085B18521898C9190E0FE
:1011B000022E02C0959587950A94E2F780FFF6CF3C
:1011C0000484F585E02D6083089588E091E0909394
:1011D0004F0280934E028AEC91E0909351028093EB
:1011E000500285EC90E0909353028093520284EC7D
:1011F00090E0909355028093540280EC90E090939D
:1012000057028093560281EC90E0909359028093AC
:10121000580286EC90E090935B0280935A0284E03F
:1012200080935C0283E080935D0287E080935E029E
:1012300085E080935F0281E08093600208950E94C0
:1012400036060E94E1050E94A805FDCF0F931F936B
:10125000CF93DF938C01EB0109C02196D801ED916A
:10126000FC910190F081E02DC80109956881662309
:10127000A1F7DF91CF911F910F910895EF92FF9207
:101280000F931F93CF93DF938C017B01EA010CC076
:10129000D7016D917D01D801ED91FC910190F08114
:1012A000E02DC80109952197209791F7DF91CF9103
:1012B0001F910F91FF90EF9008952F923F924F92C0
:1012C0005F926F927F928F929F92AF92BF92CF92D6
:1012D000DF92EF92FF920F931F93DF93CF93CDB7DF
:1012E000DEB7A0970FB6F894DEBF0FBECDBF1C01CE
:1012F0006A017B01411551056105710549F440E31F
:1013000050E060E070E020E030E00E94060A56C045
:10131000882499245401422E55246624772401E020
:1013200010E00C0F1D1F080D191DC701B601A30108
:1013300092010E947F0CF80160830894811C911C2B
:10134000A11CB11CC701B601A30192010E947F0C30
:10135000C901DA016C017D01C114D104E104F10479
:10136000F1F681E0E82EF12CEC0EFD1EE80CF91CE4
:101370003E010894611C711CD501C4010197A109AB
:10138000B1096C01C818D90816C0F601EE0DFF1D91
:1013900040814A3010F4405D01C0495C552747FD4B
:1013A0005095652F752FC10120E030E00E94060A9C
:1013B0000894E108F1086E147F0439F7A0960FB67F
:1013C000F894DEBF0FBECDBFCF91DF911F910F917B
:1013D000FF90EF90DF90CF90BF90AF909F908F9055
:1013E0007F906F905F904F903F902F900895DC0119
:1013F0002115310541F4ED91FC910190F081E02D32
:10140000642F099508950E945D090895EF92FF9257
:101410000F931F93CF93DF93EC017A018B0121157A
:10142000310541F4E881F9810190F081E02D642FCC
:1014300009951BC02A303105B1F477FF10C04DE289
:1014400050E060E070E020E030E00E94060A109575
:101450000095F094E094E11CF11C011D111DCE01DA
:10146000B801A7012AE00E945D09DF91CF911F9189
:101470000F91FF90EF9008950F931F938C014DE013
:1014800050E060E070E020E030E00E94060AC80111
:101490004AE050E060E070E020E030E00E94060AA0
:1014A0001F910F9108950F931F938C010E94F709CC
:1014B000C8010E943C0A1F910F9108955058BB2704
:1014C000AA270ED04DC13ED130F043D120F031F4E7
:1014D0009F3F11F41EF433C10EF4E095E7FB29C1E0
:1014E000E92F4FD180F3BA17620773078407950776
:1014F00018F071F49EF567C10EF4E0950B2EBA2F2B
:10150000A02D0B01B90190010C01CA01A001112409
:10151000FF27591B99F0593F50F4503E68F11A16B5
:10152000F040A22F232F342F4427585FF3CF469546
:1015300037952795A795F0405395C9F77EF41F1668
:10154000BA0B620B730B840BBAF09150A1F0FF0F32
:10155000BB1F661F771F881FC2F70EC0BA0F621F1E
:10156000731F841F48F4879577956795B795F7950E
:101570009E3F08F0B3CF9395880F08F09927EE0FA0
:101580009795879508950CD0EBC0E3D040F0DAD062
:1015900030F021F45F3F19F0CCC0511115C1CFC01C
:1015A000F0D098F39923C9F35523B1F3951B550B4C
:1015B000BB27AA2762177307840738F09F5F5F4F26
:1015C000220F331F441FAA1FA9F333D00E2E3AF067
:1015D000E0E830D091505040E695001CCAF729D081
:1015E000FE2F27D0660F771F881FBB1F26173707D0
:1015F0004807AB07B0E809F0BB0B802DBF01FF2700
:1016000093585F4F2AF09E3F510568F092C0DCC0AE
:101610005F3FECF3983EDCF3869577956795B79539
:10162000F7959F5FC9F7880F911D9695879597F954
:101630000895E1E0660F771F881FBB1F62177307CD
:101640008407BA0720F0621B730B840BBA0BEE1FE2
:1016500088F7E095089504D06894B111B5C0089555
:1016600098D088F09F5790F0B92F9927B751A0F0E4
:10167000D1F0660F771F881F991F1AF0BA95C9F726
:1016800012C0B13081F09FD0B1E008959CC0672FA7
:10169000782F8827B85F39F0B93FCCF386957795D6
:1016A0006795B395D9F73EF49095809570956195BF
:1016B0007F4F8F4F9F4F0895E89409C097FB3EF4EA
:1016C00090958095709561957F4F8F4F9F4F99238F
:1016D000A9F0F92F96E9BB279395F695879577950D
:1016E0006795B795F111F8CFFAF4BB0F11F460FFCD
:1016F0001BC06F5F7F4F8F4F9F4F16C0882311F025
:1017000096E911C0772321F09EE8872F762F05C038
:10171000662371F096E8862F70E060E02AF09A95D3
:10172000660F771F881FDAF7880F9695879597F9C8
:10173000089597F99F6780E870E060E008959FEF53
:1017400080EC089500240A94161617061806090658
:10175000089500240A941216130614060506089527
:10176000092E0394000C11F4882352F0BB0F40F4AF
:10177000BF2B11F460FF04C06F5F7F4F8F4F9F4FEF
:10178000089557FD9058440F551F59F05F3F71F071
:101790004795880F97FB991F61F09F3F79F08795D8
:1017A0000895121613061406551FF2CF4695F1DF61
:1017B00008C0161617061806991FF1CF86957105F1
:1017C000610508940895E894BB2766277727CB0125
:1017D00097F908950BD0C4CFB5DF28F0BADF18F021
:1017E000952309F0A6CFABCF1124EECFCADFA0F32B
:1017F000959FD1F3950F50E0551F629FF001729FA6
:10180000BB27F00DB11D639FAA27F00DB11DAA1FC4
:10181000649F6627B00DA11D661F829F2227B00D11
:10182000A11D621F739FB00DA11D621F839FA00D9C
:10183000611D221F749F3327A00D611D231F849FEC
:10184000600D211D822F762F6A2F11249F57504043
:101850008AF0E1F088234AF0EE0FFF1FBB1F661FDE
:10186000771F881F91505040A9F79E3F510570F097
:1018700060CFAACF5F3FECF3983EDCF38695779577
:101880006795B795F795E7959F5FC1F7FE2B880F92
:10189000911D9695879597F90895629FD001739F42
:1018A000F001829FE00DF11D649FE00DF11D929FFC
:1018B000F00D839FF00D749FF00D659FF00D99273B
:1018C000729FB00DE11DF91F639FB00DE11DF91F5F
:1018D000BD01CF011124089597FB092E07260AD0D8
:1018E00077FD04D049D006D000201AF47095619598
:1018F0007F4F0895F6F7909581959F4F0895A1E247
:101900001A2EAA1BBB1BFD010DC0AA1FBB1FEE1F79
:10191000FF1FA217B307E407F50720F0A21BB30BC4
:10192000E40BF50B661F771F881F991F1A9469F740
:1019300060957095809590959B01AC01BD01CF019C
:10194000089597FB092E05260ED057FD04D0D7DF4A
:101950000AD0001C38F450954095309521953F4FA2
:101960004F4F5F4F0895F6F790958095709561956C
:101970007F4F8F4F9F4F0895AA1BBB1B51E107C09C
:10198000AA1FBB1FA617B70710F0A61BB70B881F0F
:10199000991F5A95A9F780959095BC01CD0108959E
:1019A000EE0FFF1F0590F491E02D0994F894FFCFFE
:1019B00009000D0000000000D20826093E09700849
:1019C0009E08C608840805260ED057FD04D0D7DF30
:1019D0000AD0001C38F450954095309521953F4F22
:1019E0004F4F5F4F0895F6F79095809570956195EC
:1019F0007F4F8F4F9F4F0895AA1BBB1B51E107C01C
:101A0000CA0108959B01AC017FB7F89480919B02B5
:101A100090919C02A0919D02B0919E0266B5A89BF8
:101A200005C06F3F19F00196A11DB11D7FBFBA2FF0
:101A3000A92F982F8827860F911DA11DB11D62E047
:101A4000880F991FAA1FBB1F6A95D1F7BC012DC033
:101A5000FFB7F89480919B0290919C02A0919D0207
:101A6000B0919E02E6B5A89B05C0EF3F19F0019624
:101A7000A11DB11DFFBFBA2FA92F982F88278E0F48
:101A8000911DA11DB11DE2E0880F991FAA1FBB1F68
:101A9000EA95D1F7861B970B885E9340C8F22150D8
:101AA00030404040504068517C4F21153105410580
:101AB000510571F60895789484B5826084BD84B52B
:101AC000816084BD85B5826085BD85B5816085BD39
:101AD000EEE6F0E0808181608083E1E8F0E08081E3
:101AE00082608083808181608083E0E8F0E0808193
:101AF00081608083E1EBF0E0808184608083E0EBB3
:101B0000F0E0808181608083EAE7F0E0808184609A
:101B100080838081826080838081816080838081F6
:101B2000806880831092C1000895982F8E3008F04D
:101B30009E5097708091A6018295880F880F807CB7
:101B4000892B80937C0080917A00806480937A0056
:101B500080917A0086FDFCCF209178004091790039
:101B6000942F80E030E0282B392BC90108951F9372
:101B7000CF93DF93182FEB0161E00E94320CE12F2D
:101B8000F0E0E255FF4F8491833051F48091800062
:101B9000806880938000D0938900C09388003CC007
:101BA000843051F480918000806280938000D093D3
:101BB0008B00C0938A0030C0813039F4209729F11E
:101BC00084B5806884BDC7BD27C0823039F42097B2
:101BD000E1F084B5806284BDC8BD1EC0863041F48A
:101BE0008091B00080688093B000C093B30014C0AF
:101BF000873041F48091B00080628093B000C09340
:101C0000B4000AC0C038D1051CF4812F60E002C0C6
:101C1000812F61E00E94580CDF91CF911F910895B0
:101C20000E945B0D0E94040B0E949D0BFDCF0F9341
:101C30001F93CF93DF938C01EB0109C02196D8014C
:101C4000ED91FC910190F081E02DC801099568812A
:101C50006623A1F7DF91CF911F910F910895EF9225
:101C6000FF920F931F93CF93DF938C017B01EA01C7
:101C70000CC0D7016D917D01D801ED91FC910190CF
:101C8000F081E02DC80109952197209791F7DF9108
:101C9000CF911F910F91FF90EF9008952F923F9257
:101CA0004F925F926F927F928F929F92AF92BF926C
:101CB000CF92DF92EF92FF920F931F93DF93CF9318
:101CC000CDB7DEB7A0970FB6F894DEBF0FBECDBF7D
:101CD0001C016A017B01411551056105710549F43B
:101CE00040E350E060E070E020E030E00E94090F47
:101CF00056C0882499245401422E55246624772402
:101D000001E010E00C0F1D1F080D191DC701B601E1
:101D1000A30192010E94BE11F80160830894811C06
:101D2000911CA11CB11CC701B601A30192010E9424
:101D3000BE11C901DA016C017D01C114D104E104B5
:101D4000F104F1F681E0E82EF12CEC0EFD1EE80C1A
:101D5000F91C3E010894611C711CD501C401019756
:101D6000A109B1096C01C818D90816C0F601EE0D19
:101D7000FF1D40814A3010F4405D01C0495C552789
:101D800047FD5095652F752FC10120E030E00E947E
:101D9000090F0894E108F1086E147F0439F7A09642
:101DA0000FB6F894DEBF0FBECDBFCF91DF911F916C
:101DB0000F91FF90EF90DF90CF90BF90AF909F90EA
:101DC0008F907F906F905F904F903F902F900895ED
:101DD000DC012115310541F4ED91FC910190F08178
:101DE000E02D642F099508950E944E0E0895EF92FC
:101DF000FF920F931F939A01E62EFF2400E010E05C
:101E0000B801A7010E94E80E1F910F91FF90EF907B
:101E10000895EF92FF920F931F93CF93DF93EC01FE
:101E20007A018B012115310541F4E881F981019096
:101E3000F081E02D642F09951BC02A303105B1F4E3
:101E400077FF10C04DE250E060E070E020E030E04D
:101E50000E94090F10950095F094E094E11CF11C8C
:101E6000011D111DCE01B801A7012AE00E944E0EEE
:101E7000DF91CF911F910F91FF90EF900895EF9216
:101E8000FF920F931F937B019A010027F7FC0095A7
:101E9000102FB801A7010E94090F1F910F91FF9009
:101EA000EF9008952F923F924F925F926F927F92A0
:101EB0008F929F92AF92BF92CF92DF92EF92FF925A
:101EC0000F931F93DF93CF93CDB7DEB73B014C0148
:101ED00019012A016D897E898F89988D6A197B097C
:101EE0008C099D09621A730A840A950AA401930158
:101EF0000E948011E218F30804091509A80197014E
:101F00000E94E0112A0D3B1D4C1D5D1DB901CA0147
:101F1000CF91DF911F910F91FF90EF90DF90CF90C5
:101F2000BF90AF909F908F907F906F905F904F90F9
:101F30003F902F9008951F920F920FB60F92112489
:101F40002F933F934F935F936F937F938F939F93C1
:101F5000AF93BF93EF93FF934091C600E0912403AA
:101F6000F0912503CF01019660E870E00E94AB116B
:101F70009C0180912603909127032817390739F097
:101F8000EC55FD4F40833093250320932403FF91AC
:101F9000EF91BF91AF919F918F917F916F915F91E1
:101FA0004F913F912F910F900FBE0F901F9018955A
:101FB0005F926F927F928F929F92AF92BF92CF92D9
:101FC000DF92EF92FF920F931F93CF93DF93EC0179
:101FD0003A014B01413482E458078FE0680780E002
:101FE00078070CF07FC060E874E88EE190E0A4010F
:101FF00093010E94E0112150304040405040CA01FE
:10200000B90122E030E040E050E00E94E0115901C7
:102010006A01A6019501209530954095509594E070
:10202000220F331F441F551F9A95D1F760E074E2C9
:1020300084EF90E00E94E011CA01B9012FEF30E077
:1020400040E050E00E948011A40193010E94E01141
:10205000C90181509F4F181619061CF4522E5A942C
:1020600003C055245394521A60E079E08DE390E068
:10207000A40193010E94E0112150304040405040A3
:10208000CA01B90122E030E040E050E00E94E011D6
:10209000209530954095509583E0220F331F441FC3
:1020A000551F8A95D1F760E074E284EF90E00E94BA
:1020B000E011CA01B9012FEF30E040E050E00E948A
:1020C0008011A40193010E94E011C90181509F4F2A
:1020D000181619061CF4822F815002C081E0821B61
:1020E000851500F5E885F98581E090E00A8802C051
:1020F000880F991F0A94E2F7808360E079E08DE30E
:1021000090E0A40193010E94E01121503040404032
:102110005040CA01B90122E030E040E050E00E94A6
:10212000E01104C0E885F98510829501EC81FD81FC
:102130003083EE81FF812083EA85FB85208141E0A9
:1021400050E0CA010E8402C0880F991F0A94E2F77A
:10215000282B2083EA85FB852081CA010F8402C0D9
:10216000880F991F0A94E2F7282B2083EA85FB85C4
:102170008081088802C0440F551F0A94E2F7842B1F
:102180008083DF91CF911F910F91FF90EF90DF90AF
:10219000CF90BF90AF909F908F907F906F905F9007
:1021A0000895DC011296ED91FC911397E058FF4FD2
:1021B0008191919180589F4F20813181821B930B97
:1021C00060E870E00E94AB110895DC011296ED9179
:1021D000FC911397EE57FF4F2081318192918291AC
:1021E000E058F0408217930719F42FEF3FEF05C036
:1021F000E20FF31F8081282F30E0C9010895CF93AB
:10220000DF93DC011296ED91FC911397EF01CE570D
:10221000DF4F48815981E058FF4F80819181E0581C
:10222000F0408417950719F42FEF3FEF0CC0E40F2F
:10223000F51F2081CA01019660E870E00E94AB1191
:102240009983888330E0C901DF91CF910895DC0143
:102250001296ED91FC911397EE57FF4F808191817B
:10226000929382930895FC01A085B18521898C9178
:1022700090E0022E02C0959587950A94E2F780FFC0
:10228000F6CF0484F585E02D608308958BEA91E014
:10229000909329038093280384EA92E090932B0380
:1022A00080932A0385EC90E090932D0380932C0378
:1022B00084EC90E090932F0380932E0380EC90E0C9
:1022C000909331038093300381EC90E0909333033B
:1022D0008093320386EC90E090933503809334032F
:1022E00084E08093360383E08093370387E0809314
:1022F000380385E08093390381E080933A030895A1
:10230000629FD001739FF001829FE00DF11D649FD9
:10231000E00DF11D929FF00D839FF00D749FF00D65
:10232000659FF00D9927729FB00DE11DF91F639F06
:10233000B00DE11DF91FBD01CF0111240895991BB6
:1023400079E004C0991F961708F0961B881F7A95AC
:10235000C9F78095089597FB092E07260AD077FDC7
:1023600004D049D006D000201AF4709561957F4FB3
:102370000895F6F7909581959F4F0895A1E21A2E42
:10238000AA1BBB1BFD010DC0AA1FBB1FEE1FFF1F19
:10239000A217B307E407F50720F0A21BB30BE40B69
:1023A000F50B661F771F881F991F1A9469F76095B0
:1023B0007095809590959B01AC01BD01CF0108956A
:1023C00097FB092E05260ED057FD04D0D7DF0AD083
:1023D000001C38F450954095309521953F4F4F4F54
:1023E0005F4F0895F6F790958095709561957F4FB2
:1023F0008F4F9F4F0895AA1BBB1B51E107C0AA1F17
:10240000BB1FA617B70710F0A61BB70B881F991F95
:102410005A95A9F780959095BC01CD010895EE0FCE
:10242000FF1F0590F491E02D0994F894FFCF2E63DF
:10243000707000536572766F206F6E6C79206F6ECE
:102440002070696E732066726F6D203220746F2069
:10245000313300493243206D6F6465206E6F742004
:1024600079657420737570706F7274656400556E51
:102470006B6E6F776E2070696E206D6F6465004EB5
:102480006F7420656E6F7567682064617461002FDA
:10249000746D702F6275696C64323531373231304A
:1024A0003236383434333334323335312E746D7040
:1024B0002F5374616E646172644669726D617461F8
:1024C0005F666F72554E4F2E6370700020003F03A1
:1024D0000000130001000000003311170E2F0ED171
:1024E00010FF102711E510006F7274656400556EBF
:1024F0006B6E6F776E2070696E206D6F6465004E35
:10250000FFFFFFFFFFFFFFFFFFFFFFFFFFFFFFFFDB
:10251000FFFFFFFFFFFFFFFFFFFFFFFFFFFFFFFFCB
:10252000FFFFFFFFFFFFFFFFFFFFFFFFFFFFFFFFBB
:10253000FFFFFFFFFFFFFFFFFFFFFFFFFFFFFFFFAB
:107E000085E08093810082E08093C00088E18093C8
:107E1000C10086E08093C20080E18093C40084B7F3
:107E200014BE81FFD0D08DE0C8D0259A86E020E333
:107E30003CEF91E0309385002093840096BBB09B8B
:107E4000FECF1D9AA8958150A9F7DD24D394A5E013
:107E5000EA2EF1E1FF2EA4D0813421F481E0BED0DE
:107E600083E024C0823411F484E103C0853419F422
:107E700085E0B4D08AC08535A1F492D0082F10E0F7
:107E800010930102009300028BD090E0982F882776
:107E9000802B912B880F991F9093010280930002F1
:107EA00073C0863529F484E099D080E071D06DC02C
:107EB000843609F043C07CD0E0910002F0910102C9
:107EC00083E080935700E895C0E0D1E069D08993C2
:107ED000809102028150809302028823B9F778D002
:107EE00007B600FCFDCF4091000250910102A0E0D6
:107EF000B1E02C9130E011968C91119790E0982F81
:107F00008827822B932B1296FA010C01D0925700EE
:107F1000E89511244E5F5F4FF1E0A038BF0749F7A5
:107F2000E0910002F0910102E0925700E89507B657
:107F300000FCFDCFF0925700E89527C08437B9F4D4
:107F400037D046D0E0910002F09101023196F093D3
:107F50000102E09300023197E4918E2F19D08091B5
:107F60000202815080930202882361F70EC0853798
:107F700039F42ED08EE10CD085E90AD08FE096CF6F
:107F8000813511F488E019D023D080E101D063CF8E
:107F9000982F8091C00085FFFCCF9093C600089574
:107FA000A8958091C00087FFFCCF8091C6000895FE
:107FB000F7DFF6DF80930202F3CFE0E6F0E098E12E
:107FC00090838083089580E0F8DFEE27FF270994EF
:107FD000E7DF803209F0F7DF84E1DACF1F93182F53
:107FE000DFDF1150E9F7F4DF1F910895FFFFFFFF76
:107FF000FFFFFFFFFFFFFFFFFFFFFFFFFFFFFFFF91
:00000001FF
